:03000000020143B7
:0C014300787FE4F6D8FD75810802000307
:0A014F00C0F9A4B0999282F88090E4
:10000300C280D281D282750814E50875F00A120104
:1000130001FF3395E0FE744F2FF58274013EF583A3
:10002300E493F5A0E50875F00A120101AFF0EF3390
:1000330095E0FE744F2FF58274013EF583E493F54A
:10004300B07FF47E011201231508C3E50864809490
:100053008050B6D280C281D282750803E50875F05C
:100063000A120101FF3395E0FE744F2FF5827401EC
:100073003EF583E493F5A0E50875F00A120101AF9C
:10008300F0EF3395E0FE744F2FF58274013EF58354
:10009300E493F5B07FF47E011201231508C3E5084C
:1000A3006480948050B6D280D281C282750814C312
:1000B300E508648094805003020003E50875F00AA4
:1000C300120101FF3395E0FE744F2FF58274013E58
:1000D300F583E493F5A0E50875F00A120101AFF08A
:1000E300EF3395E0FE744F2FF58274013EF583E400
:0E00F30093F5B07FF47E01120123150880B151
:10012300E4FDFCC3ED9FEC9E5015E4FBFA0BBB0012
:0F013300010AEB647B4A70F50DBD00010C80E4FE
:01014200229A
:10010100C2D530F707B2D563F0FF05F030E70CB286
:10011100D5F4048463F0FF05F080018430D502F446
:020121000422B6
:00000001FF
